{
  "contractName": "Bookstore",
  "abi": [
    {
      "inputs": [],
      "stateMutability": "nonpayable",
      "type": "constructor"
    },
    {
      "anonymous": false,
      "inputs": [
        {
          "indexed": true,
          "internalType": "address",
          "name": "owner",
          "type": "address"
        },
        {
          "indexed": true,
          "internalType": "address",
          "name": "approved",
          "type": "address"
        },
        {
          "indexed": true,
          "internalType": "uint256",
          "name": "tokenId",
          "type": "uint256"
        }
      ],
      "name": "Approval",
      "type": "event"
    },
    {
      "anonymous": false,
      "inputs": [
        {
          "indexed": true,
          "internalType": "address",
          "name": "owner",
          "type": "address"
        },
        {
          "indexed": true,
          "internalType": "address",
          "name": "operator",
          "type": "address"
        },
        {
          "indexed": false,
          "internalType": "bool",
          "name": "approved",
          "type": "bool"
        }
      ],
      "name": "ApprovalForAll",
      "type": "event"
    },
    {
      "anonymous": false,
      "inputs": [
        {
          "indexed": true,
          "internalType": "uint256",
          "name": "bookId",
          "type": "uint256"
        }
      ],
      "name": "DeleteBook",
      "type": "event"
    },
    {
      "anonymous": false,
      "inputs": [
        {
          "indexed": true,
          "internalType": "uint256",
          "name": "bookId",
          "type": "uint256"
        }
      ],
      "name": "NewBook",
      "type": "event"
    },
    {
      "anonymous": false,
      "inputs": [
        {
          "indexed": true,
          "internalType": "uint256",
          "name": "bookId",
          "type": "uint256"
        },
        {
          "indexed": true,
          "internalType": "uint256",
          "name": "transactionId",
          "type": "uint256"
        },
        {
          "indexed": true,
          "internalType": "uint256",
          "name": "tokenId",
          "type": "uint256"
        }
      ],
      "name": "NewPurchase",
      "type": "event"
    },
    {
      "anonymous": false,
      "inputs": [
        {
          "indexed": true,
          "internalType": "address",
          "name": "previousOwner",
          "type": "address"
        },
        {
          "indexed": true,
          "internalType": "address",
          "name": "newOwner",
          "type": "address"
        }
      ],
      "name": "OwnershipTransferred",
      "type": "event"
    },
    {
      "anonymous": false,
      "inputs": [
        {
          "indexed": true,
          "internalType": "address",
          "name": "from",
          "type": "address"
        },
        {
          "indexed": true,
          "internalType": "address",
          "name": "to",
          "type": "address"
        },
        {
          "indexed": true,
          "internalType": "uint256",
          "name": "tokenId",
          "type": "uint256"
        }
      ],
      "name": "Transfer",
      "type": "event"
    },
    {
      "inputs": [
        {
          "internalType": "address",
          "name": "to",
          "type": "address"
        },
        {
          "internalType": "uint256",
          "name": "tokenId",
          "type": "uint256"
        }
      ],
      "name": "approve",
      "outputs": [],
      "stateMutability": "nonpayable",
      "type": "function"
    },
    {
      "inputs": [
        {
          "internalType": "address",
          "name": "owner",
          "type": "address"
        }
      ],
      "name": "balanceOf",
      "outputs": [
        {
          "internalType": "uint256",
          "name": "",
          "type": "uint256"
        }
      ],
      "stateMutability": "view",
      "type": "function",
      "constant": true
    },
    {
      "inputs": [],
      "name": "bookId",
      "outputs": [
        {
          "internalType": "uint256",
          "name": "",
          "type": "uint256"
        }
      ],
      "stateMutability": "view",
      "type": "function",
      "constant": true
    },
    {
      "inputs": [
        {
          "internalType": "uint256",
          "name": "",
          "type": "uint256"
        }
      ],
      "name": "books",
      "outputs": [
        {
          "internalType": "uint256",
          "name": "id",
          "type": "uint256"
        },
        {
          "internalType": "string",
          "name": "name",
          "type": "string"
        },
        {
          "internalType": "string",
          "name": "description",
          "type": "string"
        },
        {
          "internalType": "bool",
          "name": "valid",
          "type": "bool"
        },
        {
          "internalType": "uint256",
          "name": "price",
          "type": "uint256"
        },
        {
          "internalType": "address",
          "name": "owner",
          "type": "address"
        }
      ],
      "stateMutability": "view",
      "type": "function",
      "constant": true
    },
    {
      "inputs": [],
      "name": "contractOwner",
      "outputs": [
        {
          "internalType": "address",
          "name": "",
          "type": "address"
        }
      ],
      "stateMutability": "view",
      "type": "function",
      "constant": true
    },
    {
      "inputs": [
        {
          "internalType": "uint256",
          "name": "tokenId",
          "type": "uint256"
        }
      ],
      "name": "getApproved",
      "outputs": [
        {
          "internalType": "address",
          "name": "",
          "type": "address"
        }
      ],
      "stateMutability": "view",
      "type": "function",
      "constant": true
    },
    {
      "inputs": [
        {
          "internalType": "address",
          "name": "owner",
          "type": "address"
        },
        {
          "internalType": "address",
          "name": "operator",
          "type": "address"
        }
      ],
      "name": "isApprovedForAll",
      "outputs": [
        {
          "internalType": "bool",
          "name": "",
          "type": "bool"
        }
      ],
      "stateMutability": "view",
      "type": "function",
      "constant": true
    },
    {
      "inputs": [],
      "name": "name",
      "outputs": [
        {
          "internalType": "string",
          "name": "",
          "type": "string"
        }
      ],
      "stateMutability": "view",
      "type": "function",
      "constant": true
    },
    {
      "inputs": [],
      "name": "owner",
      "outputs": [
        {
          "internalType": "address",
          "name": "",
          "type": "address"
        }
      ],
      "stateMutability": "view",
      "type": "function",
      "constant": true
    },
    {
      "inputs": [
        {
          "internalType": "uint256",
          "name": "tokenId",
          "type": "uint256"
        }
      ],
      "name": "ownerOf",
      "outputs": [
        {
          "internalType": "address",
          "name": "",
          "type": "address"
        }
      ],
      "stateMutability": "view",
      "type": "function",
      "constant": true
    },
    {
      "inputs": [],
      "name": "renounceOwnership",
      "outputs": [],
      "stateMutability": "nonpayable",
      "type": "function"
    },
    {
      "inputs": [
        {
          "internalType": "address",
          "name": "from",
          "type": "address"
        },
        {
          "internalType": "address",
          "name": "to",
          "type": "address"
        },
        {
          "internalType": "uint256",
          "name": "tokenId",
          "type": "uint256"
        }
      ],
      "name": "safeTransferFrom",
      "outputs": [],
      "stateMutability": "nonpayable",
      "type": "function"
    },
    {
      "inputs": [
        {
          "internalType": "address",
          "name": "from",
          "type": "address"
        },
        {
          "internalType": "address",
          "name": "to",
          "type": "address"
        },
        {
          "internalType": "uint256",
          "name": "tokenId",
          "type": "uint256"
        },
        {
          "internalType": "bytes",
          "name": "_data",
          "type": "bytes"
        }
      ],
      "name": "safeTransferFrom",
      "outputs": [],
      "stateMutability": "nonpayable",
      "type": "function"
    },
    {
      "inputs": [
        {
          "internalType": "address",
          "name": "operator",
          "type": "address"
        },
        {
          "internalType": "bool",
          "name": "approved",
          "type": "bool"
        }
      ],
      "name": "setApprovalForAll",
      "outputs": [],
      "stateMutability": "nonpayable",
      "type": "function"
    },
    {
      "inputs": [
        {
          "internalType": "bytes4",
          "name": "interfaceId",
          "type": "bytes4"
        }
      ],
      "name": "supportsInterface",
      "outputs": [
        {
          "internalType": "bool",
          "name": "",
          "type": "bool"
        }
      ],
      "stateMutability": "view",
      "type": "function",
      "constant": true
    },
    {
      "inputs": [],
      "name": "symbol",
      "outputs": [
        {
          "internalType": "string",
          "name": "",
          "type": "string"
        }
      ],
      "stateMutability": "view",
      "type": "function",
      "constant": true
    },
    {
      "inputs": [
        {
          "internalType": "uint256",
          "name": "tokenId",
          "type": "uint256"
        }
      ],
      "name": "tokenURI",
      "outputs": [
        {
          "internalType": "string",
          "name": "",
          "type": "string"
        }
      ],
      "stateMutability": "view",
      "type": "function",
      "constant": true
    },
    {
      "inputs": [],
      "name": "transactionId",
      "outputs": [
        {
          "internalType": "uint256",
          "name": "",
          "type": "uint256"
        }
      ],
      "stateMutability": "view",
      "type": "function",
      "constant": true
    },
    {
      "inputs": [
        {
          "internalType": "uint256",
          "name": "",
          "type": "uint256"
        }
      ],
      "name": "transactions",
      "outputs": [
        {
          "internalType": "uint256",
          "name": "bookId",
          "type": "uint256"
        },
        {
          "internalType": "uint256",
          "name": "timestamp",
          "type": "uint256"
        },
        {
          "internalType": "address",
          "name": "buyer",
          "type": "address"
        },
        {
          "internalType": "uint256",
          "name": "tokenId",
          "type": "uint256"
        }
      ],
      "stateMutability": "view",
      "type": "function",
      "constant": true
    },
    {
      "inputs": [
        {
          "internalType": "address",
          "name": "from",
          "type": "address"
        },
        {
          "internalType": "address",
          "name": "to",
          "type": "address"
        },
        {
          "internalType": "uint256",
          "name": "tokenId",
          "type": "uint256"
        }
      ],
      "name": "transferFrom",
      "outputs": [],
      "stateMutability": "nonpayable",
      "type": "function"
    },
    {
      "inputs": [
        {
          "internalType": "address",
          "name": "newOwner",
          "type": "address"
        }
      ],
      "name": "transferOwnership",
      "outputs": [],
      "stateMutability": "nonpayable",
      "type": "function"
    },
    {
      "inputs": [
        {
          "internalType": "bool",
          "name": "validOnly",
          "type": "bool"
        }
      ],
      "name": "totalBooks",
      "outputs": [
        {
          "components": [
            {
              "internalType": "uint256",
              "name": "id",
              "type": "uint256"
            },
            {
              "internalType": "string",
              "name": "name",
              "type": "string"
            },
            {
              "internalType": "string",
              "name": "description",
              "type": "string"
            },
            {
              "internalType": "bool",
              "name": "valid",
              "type": "bool"
            },
            {
              "internalType": "uint256",
              "name": "price",
              "type": "uint256"
            },
            {
              "internalType": "address",
              "name": "owner",
              "type": "address"
            }
          ],
          "internalType": "struct Bookstore.Book[]",
          "name": "",
          "type": "tuple[]"
        }
      ],
      "stateMutability": "view",
      "type": "function",
      "constant": true
    },
    {
      "inputs": [
        {
          "internalType": "string",
          "name": "name",
          "type": "string"
        },
        {
          "internalType": "string",
          "name": "description",
          "type": "string"
        },
        {
          "internalType": "uint256",
          "name": "price",
          "type": "uint256"
        }
      ],
      "name": "sellBook",
      "outputs": [
        {
          "internalType": "bool",
          "name": "success",
          "type": "bool"
        }
      ],
      "stateMutability": "nonpayable",
      "type": "function"
    },
    {
      "inputs": [
        {
          "internalType": "uint256",
          "name": "_bookId",
          "type": "uint256"
        },
        {
          "internalType": "uint256",
          "name": "timestamp",
          "type": "uint256"
        },
        {
          "internalType": "string",
          "name": "tokenURI",
          "type": "string"
        }
      ],
      "name": "buyBook",
      "outputs": [
        {
          "internalType": "bool",
          "name": "",
          "type": "bool"
        }
      ],
      "stateMutability": "payable",
      "type": "function",
      "payable": true
    },
    {
      "inputs": [
        {
          "internalType": "uint256",
          "name": "_bookId",
          "type": "uint256"
        }
      ],
      "name": "deleteBook",
      "outputs": [
        {
          "internalType": "bool",
          "name": "success",
          "type": "bool"
        }
      ],
      "stateMutability": "nonpayable",
      "type": "function"
    }
  ],
  "bytecode": "0x60806040523480156200001157600080fd5b506040518060400160405280600881526020017f4d7920426f6f6b730000000000000000000000000000000000000000000000008152506040518060400160405280600881526020017f424f4f4b5f4e4654000000000000000000000000000000000000000000000000815250816000908051906020019062000096929190620001f6565b508060019080519060200190620000af929190620001f6565b505050620000d2620000c66200012860201b60201c565b6200013060201b60201c565b620000e26200012860201b60201c565b600860006101000a81548173ffffffffffffffffffffffffffffffffffffffff021916908373ffffffffffffffffffffffffffffffffffffffff1602179055506200030b565b600033905090565b6000600760009054906101000a900473ffffffffffffffffffffffffffffffffffffffff16905081600760006101000a81548173ffffffffffffffffffffffffffffffffffffffff021916908373ffffffffffffffffffffffffffffffffffffffff1602179055508173ffffffffffffffffffffffffffffffffffffffff168173ffffffffffffffffffffffffffffffffffffffff167f8be0079c531659141344cd1fd0a4f28419497f9722a3daafe3b4186f6b6457e060405160405180910390a35050565b8280546200020490620002a6565b90600052602060002090601f01602090048101928262000228576000855562000274565b82601f106200024357805160ff191683800117855562000274565b8280016001018555821562000274579182015b828111156200027357825182559160200191906001019062000256565b5b50905062000283919062000287565b5090565b5b80821115620002a257600081600090555060010162000288565b5090565b60006002820490506001821680620002bf57607f821691505b60208210811415620002d657620002d5620002dc565b5b50919050565b7f4e487b7100000000000000000000000000000000000000000000000000000000600052602260045260246000fd5b6142f4806200031b6000396000f3fe6080604052600436106101665760003560e01c8063715018a6116100d1578063b88d4fde1161008a578063ce606ee011610064578063ce606ee014610595578063e912832d146105c0578063e985e9c5146105eb578063f2fde38b1461062857610166565b8063b88d4fde146104f2578063c87b56dd1461051b578063cbb458a91461055857610166565b8063715018a6146103f15780637e2f42e7146104085780638da5cb5b1461043357806395d89b411461045e5780639ace38c214610489578063a22cb465146104c957610166565b80632151fb38116101235780632151fb38146102a657806323b872dd146102e357806342842e0e1461030c5780636352211e14610335578063687440461461037257806370a08231146103b457610166565b806301ffc9a71461016b57806306fdde03146101a8578063081812fc146101d3578063095ea7b3146102105780631395710d146102395780631c9f10eb14610269575b600080fd5b34801561017757600080fd5b50610192600480360381019061018d9190612e20565b610651565b60405161019f9190613539565b60405180910390f35b3480156101b457600080fd5b506101bd610733565b6040516101ca9190613554565b60405180910390f35b3480156101df57600080fd5b506101fa60048036038101906101f59190612ef1565b6107c5565b60405161020791906134b0565b60405180910390f35b34801561021c57600080fd5b5061023760048036038101906102329190612dbb565b61084a565b005b610253600480360381019061024e9190612f1a565b610962565b6040516102609190613539565b60405180910390f35b34801561027557600080fd5b50610290600480360381019061028b9190612df7565b610b29565b60405161029d9190613517565b60405180910390f35b3480156102b257600080fd5b506102cd60048036038101906102c89190612ef1565b611019565b6040516102da9190613539565b60405180910390f35b3480156102ef57600080fd5b5061030a60048036038101906103059190612cb5565b611140565b005b34801561031857600080fd5b50610333600480360381019061032e9190612cb5565b6111a0565b005b34801561034157600080fd5b5061035c60048036038101906103579190612ef1565b6111c0565b60405161036991906134b0565b60405180910390f35b34801561037e57600080fd5b5061039960048036038101906103949190612ef1565b611272565b6040516103ab96959493929190613811565b60405180910390f35b3480156103c057600080fd5b506103db60048036038101906103d69190612c50565b6113eb565b6040516103e891906137f6565b60405180910390f35b3480156103fd57600080fd5b506104066114a3565b005b34801561041457600080fd5b5061041d61152b565b60405161042a91906137f6565b60405180910390f35b34801561043f57600080fd5b50610448611531565b60405161045591906134b0565b60405180910390f35b34801561046a57600080fd5b5061047361155b565b6040516104809190613554565b60405180910390f35b34801561049557600080fd5b506104b060048036038101906104ab9190612ef1565b6115ed565b6040516104c09493929190613880565b60405180910390f35b3480156104d557600080fd5b506104f060048036038101906104eb9190612d7f565b61163d565b005b3480156104fe57600080fd5b5061051960048036038101906105149190612d04565b611653565b005b34801561052757600080fd5b50610542600480360381019061053d9190612ef1565b6116b5565b60405161054f9190613554565b60405180910390f35b34801561056457600080fd5b5061057f600480360381019061057a9190612e72565b611807565b60405161058c9190613539565b60405180910390f35b3480156105a157600080fd5b506105aa611978565b6040516105b791906134b0565b60405180910390f35b3480156105cc57600080fd5b506105d561199e565b6040516105e291906137f6565b60405180910390f35b3480156105f757600080fd5b50610612600480360381019061060d9190612c79565b6119a4565b60405161061f9190613539565b60405180910390f35b34801561063457600080fd5b5061064f600480360381019061064a9190612c50565b611a38565b005b60007f80ac58cd000000000000000000000000000000000000000000000000000000007bffffffffffffffffffffffffffffffffffffffffffffffffffffffff1916827bffffffffffffffffffffffffffffffffffffffffffffffffffffffff1916148061071c57507f5b5e139f000000000000000000000000000000000000000000000000000000007bffffffffffffffffffffffffffffffffffffffffffffffffffffffff1916827bffffffffffffffffffffffffffffffffffffffffffffffffffffffff1916145b8061072c575061072b82611b30565b5b9050919050565b60606000805461074290613b4a565b80601f016020809104026020016040519081016040528092919081815260200182805461076e90613b4a565b80156107bb5780601f10610790576101008083540402835291602001916107bb565b820191906000526020600020905b81548152906001019060200180831161079e57829003601f168201915b5050505050905090565b60006107d082611b9a565b61080f576040517f08c379a000000000000000000000000000000000000000000000000000000000815260040161080690613736565b60405180910390fd5b6004600083815260200190815260200160002060009054906101000a900473ffffffffffffffffffffffffffffffffffffffff169050919050565b6000610855826111c0565b90508073ffffffffffffffffffffffffffffffffffffffff168373ffffffffffffffffffffffffffffffffffffffff1614156108c6576040517f08c379a00000000000000000000000000000000000000000000000000000000081526004016108bd906137b6565b60405180910390fd5b8073ffffffffffffffffffffffffffffffffffffffff166108e5611c06565b73ffffffffffffffffffffffffffffffffffffffff16148061091457506109138161090e611c06565b6119a4565b5b610953576040517f08c379a000000000000000000000000000000000000000000000000000000000815260040161094a90613676565b60405180910390fd5b61095d8383611c0e565b505050565b600080600a60008681526020019081526020016000209050600115158160030160009054906101000a900460ff161515146109d2576040517f08c379a00000000000000000000000000000000000000000000000000000000081526004016109c990613576565b60405180910390fd5b610a078160050160009054906101000a900473ffffffffffffffffffffffffffffffffffffffff16610a02611cc7565b611ccf565b6000610a1a610a14611c06565b85611d1a565b90506040518060800160405280878152602001868152602001610a3b611c06565b73ffffffffffffffffffffffffffffffffffffffff16815260200182815250600c6000600b548152602001908152602001600020600082015181600001556020820151816001015560408201518160020160006101000a81548173ffffffffffffffffffffffffffffffffffffffff021916908373ffffffffffffffffffffffffffffffffffffffff1602179055506060820151816003015590505080600b6000815480929190610aeb90613bad565b91905055877f1d74fdd55cfce7983e97e845b916b32fde596816e7a88225ab545cd557fc283f60405160405180910390a46001925050509392505050565b60606000805b600954811015610d3a576000600a60008381526020019081526020016000206040518060c001604052908160008201548152602001600182018054610b7390613b4a565b80601f0160208091040260200160405190810160405280929190818152602001828054610b9f90613b4a565b8015610bec5780601f10610bc157610100808354040283529160200191610bec565b820191906000526020600020905b815481529060010190602001808311610bcf57829003601f168201915b50505050508152602001600282018054610c0590613b4a565b80601f0160208091040260200160405190810160405280929190818152602001828054610c3190613b4a565b8015610c7e5780601f10610c5357610100808354040283529160200191610c7e565b820191906000526020600020905b815481529060010190602001808311610c6157829003601f168201915b505050505081526020016003820160009054906101000a900460ff16151515158152602001600482015481526020016005820160009054906101000a900473ffffffffffffffffffffffffffffffffffffffff1673ffffffffffffffffffffffffffffffffffffffff1673ffffffffffffffffffffffffffffffffffffffff16815250509050841580610d12575080606001515b15610d26578280610d2290613bad565b9350505b508080610d3290613bad565b915050610b2f565b5060008167ffffffffffffffff811115610d7d577f4e487b7100000000000000000000000000000000000000000000000000000000600052604160045260246000fd5b604051908082528060200260200182016040528015610db657816020015b610da3612a26565b815260200190600190039081610d9b5790505b5090506000915060005b60095481101561100e576000600a60008381526020019081526020016000206040518060c001604052908160008201548152602001600182018054610e0490613b4a565b80601f0160208091040260200160405190810160405280929190818152602001828054610e3090613b4a565b8015610e7d5780601f10610e5257610100808354040283529160200191610e7d565b820191906000526020600020905b815481529060010190602001808311610e6057829003601f168201915b50505050508152602001600282018054610e9690613b4a565b80601f0160208091040260200160405190810160405280929190818152602001828054610ec290613b4a565b8015610f0f5780601f10610ee457610100808354040283529160200191610f0f565b820191906000526020600020905b815481529060010190602001808311610ef257829003601f168201915b505050505081526020016003820160009054906101000a900460ff16151515158152602001600482015481526020016005820160009054906101000a900473ffffffffffffffffffffffffffffffffffffffff1673ffffffffffffffffffffffffffffffffffffffff1673ffffffffffffffffffffffffffffffffffffffff16815250509050851580610fa3575080606001515b15610ffa5780838580610fb590613bad565b965081518110610fee577f4e487b7100000000000000000000000000000000000000000000000000000000600052603260045260246000fd5b60200260200101819052505b50808061100690613bad565b915050610dc0565b508092505050919050565b6000600a600083815260200190815260200160002060050160009054906101000a900473ffffffffffffffffffffffffffffffffffffffff1673ffffffffffffffffffffffffffffffffffffffff16611070611c06565b73ffffffffffffffffffffffffffffffffffffffff1614806110965750611095611d52565b5b6110d5576040517f08c379a00000000000000000000000000000000000000000000000000000000081526004016110cc90613796565b60405180910390fd5b6000600a6000848152602001908152602001600020905060008160030160006101000a81548160ff021916908315150217905550827fb8f952227d61c2381000a8a7296a617eb69c1a822b43f983ac2d6766ce7e289760405160405180910390a26001915050919050565b61115161114b611c06565b82611db1565b611190576040517f08c379a0000000000000000000000000000000000000000000000000000000008152600401611187906137d6565b60405180910390fd5b61119b838383611e8f565b505050565b6111bb83838360405180602001604052806000815250611653565b505050565b6000806002600084815260200190815260200160002060009054906101000a900473ffffffffffffffffffffffffffffffffffffffff169050600073ffffffffffffffffffffffffffffffffffffffff168173ffffffffffffffffffffffffffffffffffffffff161415611269576040517f08c379a0000000000000000000000000000000000000000000000000000000008152600401611260906136b6565b60405180910390fd5b80915050919050565b600a60205280600052604060002060009150905080600001549080600101805461129b90613b4a565b80601f01602080910402602001604051908101604052809291908181526020018280546112c790613b4a565b80156113145780601f106112e957610100808354040283529160200191611314565b820191906000526020600020905b8154815290600101906020018083116112f757829003601f168201915b50505050509080600201805461132990613b4a565b80601f016020809104026020016040519081016040528092919081815260200182805461135590613b4a565b80156113a25780601f10611377576101008083540402835291602001916113a2565b820191906000526020600020905b81548152906001019060200180831161138557829003601f168201915b5050505050908060030160009054906101000a900460ff16908060040154908060050160009054906101000a900473ffffffffffffffffffffffffffffffffffffffff16905086565b60008073ffffffffffffffffffffffffffffffffffffffff168273ffffffffffffffffffffffffffffffffffffffff16141561145c576040517f08c379a000000000000000000000000000000000000000000000000000000000815260040161145390613696565b60405180910390fd5b600360008373ffffffffffffffffffffffffffffffffffffffff1673ffffffffffffffffffffffffffffffffffffffff168152602001908152602001600020549050919050565b6114ab611c06565b73ffffffffffffffffffffffffffffffffffffffff166114c9611531565b73ffffffffffffffffffffffffffffffffffffffff161461151f576040517f08c379a000000000000000000000000000000000000000000000000000000000815260040161151690613756565b60405180910390fd5b61152960006120f6565b565b600b5481565b6000600760009054906101000a900473ffffffffffffffffffffffffffffffffffffffff16905090565b60606001805461156a90613b4a565b80601f016020809104026020016040519081016040528092919081815260200182805461159690613b4a565b80156115e35780601f106115b8576101008083540402835291602001916115e3565b820191906000526020600020905b8154815290600101906020018083116115c657829003601f168201915b5050505050905090565b600c6020528060005260406000206000915090508060000154908060010154908060020160009054906101000a900473ffffffffffffffffffffffffffffffffffffffff16908060030154905084565b61164f611648611c06565b83836121bc565b5050565b61166461165e611c06565b83611db1565b6116a3576040517f08c379a000000000000000000000000000000000000000000000000000000000815260040161169a906137d6565b60405180910390fd5b6116af84848484612329565b50505050565b60606116c082611b9a565b6116ff576040517f08c379a00000000000000000000000000000000000000000000000000000000081526004016116f690613716565b60405180910390fd5b600060066000848152602001908152602001600020805461171f90613b4a565b80601f016020809104026020016040519081016040528092919081815260200182805461174b90613b4a565b80156117985780601f1061176d57610100808354040283529160200191611798565b820191906000526020600020905b81548152906001019060200180831161177b57829003601f168201915b5050505050905060006117a9612385565b90506000815114156117bf578192505050611802565b6000825111156117f45780826040516020016117dc92919061348c565b60405160208183030381529060405292505050611802565b6117fd8461239c565b925050505b919050565b6000806040518060c001604052806009548152602001868152602001858152602001600115158152602001848152602001611840611c06565b73ffffffffffffffffffffffffffffffffffffffff16815250905080600a60006009548152602001908152602001600020600082015181600001556020820151816001019080519060200190611897929190612a74565b5060408201518160020190805190602001906118b4929190612a74565b5060608201518160030160006101000a81548160ff0219169083151502179055506080820151816004015560a08201518160050160006101000a81548173ffffffffffffffffffffffffffffffffffffffff021916908373ffffffffffffffffffffffffffffffffffffffff1602179055509050506009600081548092919061193c90613bad565b919050557f439b490920bee799f40c0c3792d224bcccb954e074515e7aa6d4227b4e7501bd60405160405180910390a260019150509392505050565b600860009054906101000a900473ffffffffffffffffffffffffffffffffffffffff1681565b60095481565b6000600560008473ffffffffffffffffffffffffffffffffffffffff1673ffffffffffffffffffffffffffffffffffffffff16815260200190815260200160002060008373ffffffffffffffffffffffffffffffffffffffff1673ffffffffffffffffffffffffffffffffffffffff16815260200190815260200160002060009054906101000a900460ff16905092915050565b611a40611c06565b73ffffffffffffffffffffffffffffffffffffffff16611a5e611531565b73ffffffffffffffffffffffffffffffffffffffff1614611ab4576040517f08c379a0000000000000000000000000000000000000000000000000000000008152600401611aab90613756565b60405180910390fd5b600073ffffffffffffffffffffffffffffffffffffffff168173ffffffffffffffffffffffffffffffffffffffff161415611b24576040517f08c379a0000000000000000000000000000000000000000000000000000000008152600401611b1b906135b6565b60405180910390fd5b611b2d816120f6565b50565b60007f01ffc9a7000000000000000000000000000000000000000000000000000000007bffffffffffffffffffffffffffffffffffffffffffffffffffffffff1916827bffffffffffffffffffffffffffffffffffffffffffffffffffffffff1916149050919050565b60008073ffffffffffffffffffffffffffffffffffffffff166002600084815260200190815260200160002060009054906101000a900473ffffffffffffffffffffffffffffffffffffffff1673ffffffffffffffffffffffffffffffffffffffff1614159050919050565b600033905090565b816004600083815260200190815260200160002060006101000a81548173ffffffffffffffffffffffffffffffffffffffff021916908373ffffffffffffffffffffffffffffffffffffffff160217905550808273ffffffffffffffffffffffffffffffffffffffff16611c81836111c0565b73ffffffffffffffffffffffffffffffffffffffff167f8c5be1e5ebec7d5bd14f71427d1e84f3dd0314c0f7b2291e5b200ac8c7c3b92560405160405180910390a45050565b600034905090565b8173ffffffffffffffffffffffffffffffffffffffff166108fc829081150290604051600060405180830381858888f19350505050158015611d15573d6000803e3d6000fd5b505050565b6000611d26600d612443565b6000611d32600d612459565b9050611d3e8482612467565b611d488184612641565b8091505092915050565b6000611d5c611c06565b73ffffffffffffffffffffffffffffffffffffffff16600860009054906101000a900473ffffffffffffffffffffffffffffffffffffffff1673ffffffffffffffffffffffffffffffffffffffff1614905090565b6000611dbc82611b9a565b611dfb576040517f08c379a0000000000000000000000000000000000000000000000000000000008152600401611df290613656565b60405180910390fd5b6000611e06836111c0565b90508073ffffffffffffffffffffffffffffffffffffffff168473ffffffffffffffffffffffffffffffffffffffff161480611e485750611e4781856119a4565b5b80611e8657508373ffffffffffffffffffffffffffffffffffffffff16611e6e846107c5565b73ffffffffffffffffffffffffffffffffffffffff16145b91505092915050565b8273ffffffffffffffffffffffffffffffffffffffff16611eaf826111c0565b73ffffffffffffffffffffffffffffffffffffffff1614611f05576040517f08c379a0000000000000000000000000000000000000000000000000000000008152600401611efc906135d6565b60405180910390fd5b600073ffffffffffffffffffffffffffffffffffffffff168273ffffffffffffffffffffffffffffffffffffffff161415611f75576040517f08c379a0000000000000000000000000000000000000000000000000000000008152600401611f6c90613616565b60405180910390fd5b611f808383836126b5565b611f8b600082611c0e565b6001600360008573ffffffffffffffffffffffffffffffffffffffff1673ffffffffffffffffffffffffffffffffffffffff1681526020019081526020016000206000828254611fdb9190613a60565b925050819055506001600360008473ffffffffffffffffffffffffffffffffffffffff1673ffffffffffffffffffffffffffffffffffffffff168152602001908152602001600020600082825461203291906139d9565b92505081905550816002600083815260200190815260200160002060006101000a81548173ffffffffffffffffffffffffffffffffffffffff021916908373ffffffffffffffffffffffffffffffffffffffff160217905550808273ffffffffffffffffffffffffffffffffffffffff168473ffffffffffffffffffffffffffffffffffffffff167fddf252ad1be2c89b69c2b068fc378daa952ba7f163c4a11628f55a4df523b3ef60405160405180910390a46120f18383836126ba565b505050565b6000600760009054906101000a900473ffffffffffffffffffffffffffffffffffffffff16905081600760006101000a81548173ffffffffffffffffffffffffffffffffffffffff021916908373ffffffffffffffffffffffffffffffffffffffff1602179055508173ffffffffffffffffffffffffffffffffffffffff168173ffffffffffffffffffffffffffffffffffffffff167f8be0079c531659141344cd1fd0a4f28419497f9722a3daafe3b4186f6b6457e060405160405180910390a35050565b8173ffffffffffffffffffffffffffffffffffffffff168373ffffffffffffffffffffffffffffffffffffffff16141561222b576040517f08c379a000000000000000000000000000000000000000000000000000000000815260040161222290613636565b60405180910390fd5b80600560008573ffffffffffffffffffffffffffffffffffffffff1673ffffffffffffffffffffffffffffffffffffffff16815260200190815260200160002060008473ffffffffffffffffffffffffffffffffffffffff1673ffffffffffffffffffffffffffffffffffffffff16815260200190815260200160002060006101000a81548160ff0219169083151502179055508173ffffffffffffffffffffffffffffffffffffffff168373ffffffffffffffffffffffffffffffffffffffff167f17307eab39ab6107e8899845ad3d59bd9653f200f220920489ca2b5937696c318360405161231c9190613539565b60405180910390a3505050565b612334848484611e8f565b612340848484846126bf565b61237f576040517f08c379a000000000000000000000000000000000000000000000000000000000815260040161237690613596565b60405180910390fd5b50505050565b606060405180602001604052806000815250905090565b60606123a782611b9a565b6123e6576040517f08c379a00000000000000000000000000000000000000000000000000000000081526004016123dd90613776565b60405180910390fd5b60006123f0612385565b90506000815111612410576040518060200160405280600081525061243b565b8061241a84612856565b60405160200161242b92919061348c565b6040516020818303038152906040525b915050919050565b6001816000016000828254019250508190555050565b600081600001549050919050565b600073ffffffffffffffffffffffffffffffffffffffff168273ffffffffffffffffffffffffffffffffffffffff1614156124d7576040517f08c379a00000000000000000000000000000000000000000000000000000000081526004016124ce906136f6565b60405180910390fd5b6124e081611b9a565b15612520576040517f08c379a0000000000000000000000000000000000000000000000000000000008152600401612517906135f6565b60405180910390fd5b61252c600083836126b5565b6001600360008473ffffffffffffffffffffffffffffffffffffffff1673ffffffffffffffffffffffffffffffffffffffff168152602001908152602001600020600082825461257c91906139d9565b92505081905550816002600083815260200190815260200160002060006101000a81548173ffffffffffffffffffffffffffffffffffffffff021916908373ffffffffffffffffffffffffffffffffffffffff160217905550808273ffffffffffffffffffffffffffffffffffffffff16600073ffffffffffffffffffffffffffffffffffffffff167fddf252ad1be2c89b69c2b068fc378daa952ba7f163c4a11628f55a4df523b3ef60405160405180910390a461263d600083836126ba565b5050565b61264a82611b9a565b612689576040517f08c379a0000000000000000000000000000000000000000000000000000000008152600401612680906136d6565b60405180910390fd5b806006600084815260200190815260200160002090805190602001906126b0929190612a74565b505050565b505050565b505050565b60006126e08473ffffffffffffffffffffffffffffffffffffffff16612a03565b15612849578373ffffffffffffffffffffffffffffffffffffffff1663150b7a02612709611c06565b8786866040518563ffffffff1660e01b815260040161272b94939291906134cb565b602060405180830381600087803b15801561274557600080fd5b505af192505050801561277657506040513d601f19601f820116820180604052508101906127739190612e49565b60015b6127f9573d80600081146127a6576040519150601f19603f3d011682016040523d82523d6000602084013e6127ab565b606091505b506000815114156127f1576040517f08c379a00000000000000000000000000000000000000000000000000000000081526004016127e890613596565b60405180910390fd5b805181602001fd5b63150b7a0260e01b7bffffffffffffffffffffffffffffffffffffffffffffffffffffffff1916817bffffffffffffffffffffffffffffffffffffffffffffffffffffffff19161491505061284e565b600190505b949350505050565b6060600082141561289e576040518060400160405280600181526020017f300000000000000000000000000000000000000000000000000000000000000081525090506129fe565b600082905060005b600082146128d05780806128b990613bad565b915050600a826128c99190613a2f565b91506128a6565b60008167ffffffffffffffff811115612912577f4e487b7100000000000000000000000000000000000000000000000000000000600052604160045260246000fd5b6040519080825280601f01601f1916602001820160405280156129445781602001600182028036833780820191505090505b5090505b600085146129f75760018261295d9190613a60565b9150600a8561296c9190613bf6565b603061297891906139d9565b60f81b8183815181106129b4577f4e487b7100000000000000000000000000000000000000000000000000000000600052603260045260246000fd5b60200101907effffffffffffffffffffffffffffffffffffffffffffffffffffffffffffff1916908160001a905350600a856129f09190613a2f565b9450612948565b8093505050505b919050565b6000808273ffffffffffffffffffffffffffffffffffffffff163b119050919050565b6040518060c0016040528060008152602001606081526020016060815260200160001515815260200160008152602001600073ffffffffffffffffffffffffffffffffffffffff1681525090565b828054612a8090613b4a565b90600052602060002090601f016020900481019282612aa25760008555612ae9565b82601f10612abb57805160ff1916838001178555612ae9565b82800160010185558215612ae9579182015b82811115612ae8578251825591602001919060010190612acd565b5b509050612af69190612afa565b5090565b5b80821115612b13576000816000905550600101612afb565b5090565b6000612b2a612b25846138ea565b6138c5565b905082815260208101848484011115612b4257600080fd5b612b4d848285613b08565b509392505050565b6000612b68612b638461391b565b6138c5565b905082815260208101848484011115612b8057600080fd5b612b8b848285613b08565b509392505050565b600081359050612ba281614262565b92915050565b600081359050612bb781614279565b92915050565b600081359050612bcc81614290565b92915050565b600081519050612be181614290565b92915050565b600082601f830112612bf857600080fd5b8135612c08848260208601612b17565b91505092915050565b600082601f830112612c2257600080fd5b8135612c32848260208601612b55565b91505092915050565b600081359050612c4a816142a7565b92915050565b600060208284031215612c6257600080fd5b6000612c7084828501612b93565b91505092915050565b60008060408385031215612c8c57600080fd5b6000612c9a85828601612b93565b9250506020612cab85828601612b93565b9150509250929050565b600080600060608486031215612cca57600080fd5b6000612cd886828701612b93565b9350506020612ce986828701612b93565b9250506040612cfa86828701612c3b565b9150509250925092565b60008060008060808587031215612d1a57600080fd5b6000612d2887828801612b93565b9450506020612d3987828801612b93565b9350506040612d4a87828801612c3b565b925050606085013567ffffffffffffffff811115612d6757600080fd5b612d7387828801612be7565b91505092959194509250565b60008060408385031215612d9257600080fd5b6000612da085828601612b93565b9250506020612db185828601612ba8565b9150509250929050565b60008060408385031215612dce57600080fd5b6000612ddc85828601612b93565b9250506020612ded85828601612c3b565b9150509250929050565b600060208284031215612e0957600080fd5b6000612e1784828501612ba8565b91505092915050565b600060208284031215612e3257600080fd5b6000612e4084828501612bbd565b91505092915050565b600060208284031215612e5b57600080fd5b6000612e6984828501612bd2565b91505092915050565b600080600060608486031215612e8757600080fd5b600084013567ffffffffffffffff811115612ea157600080fd5b612ead86828701612c11565b935050602084013567ffffffffffffffff811115612eca57600080fd5b612ed686828701612c11565b9250506040612ee786828701612c3b565b9150509250925092565b600060208284031215612f0357600080fd5b6000612f1184828501612c3b565b91505092915050565b600080600060608486031215612f2f57600080fd5b6000612f3d86828701612c3b565b9350506020612f4e86828701612c3b565b925050604084013567ffffffffffffffff811115612f6b57600080fd5b612f7786828701612c11565b9150509250925092565b6000612f8d83836133de565b905092915050565b612f9e81613a94565b82525050565b612fad81613a94565b82525050565b6000612fbe8261395c565b612fc8818561398a565b935083602082028501612fda8561394c565b8060005b858110156130165784840389528151612ff78582612f81565b94506130028361397d565b925060208a01995050600181019050612fde565b50829750879550505050505092915050565b61303181613aa6565b82525050565b61304081613aa6565b82525050565b600061305182613967565b61305b818561399b565b935061306b818560208601613b17565b61307481613ce3565b840191505092915050565b600061308a82613972565b61309481856139ac565b93506130a4818560208601613b17565b6130ad81613ce3565b840191505092915050565b60006130c382613972565b6130cd81856139bd565b93506130dd818560208601613b17565b6130e681613ce3565b840191505092915050565b60006130fc82613972565b61310681856139ce565b9350613116818560208601613b17565b80840191505092915050565b600061312f6013836139bd565b915061313a82613cf4565b602082019050919050565b60006131526032836139bd565b915061315d82613d1d565b604082019050919050565b60006131756026836139bd565b915061318082613d6c565b604082019050919050565b60006131986025836139bd565b91506131a382613dbb565b604082019050919050565b60006131bb601c836139bd565b91506131c682613e0a565b602082019050919050565b60006131de6024836139bd565b91506131e982613e33565b604082019050919050565b60006132016019836139bd565b915061320c82613e82565b602082019050919050565b6000613224602c836139bd565b915061322f82613eab565b604082019050919050565b60006132476038836139bd565b915061325282613efa565b604082019050919050565b600061326a602a836139bd565b915061327582613f49565b604082019050919050565b600061328d6029836139bd565b915061329882613f98565b604082019050919050565b60006132b0602e836139bd565b91506132bb82613fe7565b604082019050919050565b60006132d36020836139bd565b91506132de82614036565b602082019050919050565b60006132f66031836139bd565b91506133018261405f565b604082019050919050565b6000613319602c836139bd565b9150613324826140ae565b604082019050919050565b600061333c6020836139bd565b9150613347826140fd565b602082019050919050565b600061335f602f836139bd565b915061336a82614126565b604082019050919050565b6000613382602b836139bd565b915061338d82614175565b604082019050919050565b60006133a56021836139bd565b91506133b0826141c4565b604082019050919050565b60006133c86031836139bd565b91506133d382614213565b604082019050919050565b600060c0830160008301516133f6600086018261346e565b506020830151848203602086015261340e828261307f565b91505060408301518482036040860152613428828261307f565b915050606083015161343d6060860182613028565b506080830151613450608086018261346e565b5060a083015161346360a0860182612f95565b508091505092915050565b61347781613afe565b82525050565b61348681613afe565b82525050565b600061349882856130f1565b91506134a482846130f1565b91508190509392505050565b60006020820190506134c56000830184612fa4565b92915050565b60006080820190506134e06000830187612fa4565b6134ed6020830186612fa4565b6134fa604083018561347d565b818103606083015261350c8184613046565b905095945050505050565b600060208201905081810360008301526135318184612fb3565b905092915050565b600060208201905061354e6000830184613037565b92915050565b6000602082019050818103600083015261356e81846130b8565b905092915050565b6000602082019050818103600083015261358f81613122565b9050919050565b600060208201905081810360008301526135af81613145565b9050919050565b600060208201905081810360008301526135cf81613168565b9050919050565b600060208201905081810360008301526135ef8161318b565b9050919050565b6000602082019050818103600083015261360f816131ae565b9050919050565b6000602082019050818103600083015261362f816131d1565b9050919050565b6000602082019050818103600083015261364f816131f4565b9050919050565b6000602082019050818103600083015261366f81613217565b9050919050565b6000602082019050818103600083015261368f8161323a565b9050919050565b600060208201905081810360008301526136af8161325d565b9050919050565b600060208201905081810360008301526136cf81613280565b9050919050565b600060208201905081810360008301526136ef816132a3565b9050919050565b6000602082019050818103600083015261370f816132c6565b9050919050565b6000602082019050818103600083015261372f816132e9565b9050919050565b6000602082019050818103600083015261374f8161330c565b9050919050565b6000602082019050818103600083015261376f8161332f565b9050919050565b6000602082019050818103600083015261378f81613352565b9050919050565b600060208201905081810360008301526137af81613375565b9050919050565b600060208201905081810360008301526137cf81613398565b9050919050565b600060208201905081810360008301526137ef816133bb565b9050919050565b600060208201905061380b600083018461347d565b92915050565b600060c082019050613826600083018961347d565b818103602083015261383881886130b8565b9050818103604083015261384c81876130b8565b905061385b6060830186613037565b613868608083018561347d565b61387560a0830184612fa4565b979650505050505050565b6000608082019050613895600083018761347d565b6138a2602083018661347d565b6138af6040830185612fa4565b6138bc606083018461347d565b95945050505050565b60006138cf6138e0565b90506138db8282613b7c565b919050565b6000604051905090565b600067ffffffffffffffff82111561390557613904613cb4565b5b61390e82613ce3565b9050602081019050919050565b600067ffffffffffffffff82111561393657613935613cb4565b5b61393f82613ce3565b9050602081019050919050565b6000819050602082019050919050565b600081519050919050565b600081519050919050565b600081519050919050565b6000602082019050919050565b600082825260208201905092915050565b600082825260208201905092915050565b600082825260208201905092915050565b600082825260208201905092915050565b600081905092915050565b60006139e482613afe565b91506139ef83613afe565b9250827fffffffffffffffffffffffffffffffffffffffffffffffffffffffffffffffff03821115613a2457613a23613c27565b5b828201905092915050565b6000613a3a82613afe565b9150613a4583613afe565b925082613a5557613a54613c56565b5b828204905092915050565b6000613a6b82613afe565b9150613a7683613afe565b925082821015613a8957613a88613c27565b5b828203905092915050565b6000613a9f82613ade565b9050919050565b60008115159050919050565b60007fffffffff0000000000000000000000000000000000000000000000000000000082169050919050565b600073ffffffffffffffffffffffffffffffffffffffff82169050919050565b6000819050919050565b82818337600083830152505050565b60005b83811015613b35578082015181840152602081019050613b1a565b83811115613b44576000848401525b50505050565b60006002820490506001821680613b6257607f821691505b60208210811415613b7657613b75613c85565b5b50919050565b613b8582613ce3565b810181811067ffffffffffffffff82111715613ba457613ba3613cb4565b5b80604052505050565b6000613bb882613afe565b91507fffffffffffffffffffffffffffffffffffffffffffffffffffffffffffffffff821415613beb57613bea613c27565b5b600182019050919050565b6000613c0182613afe565b9150613c0c83613afe565b925082613c1c57613c1b613c56565b5b828206905092915050565b7f4e487b7100000000000000000000000000000000000000000000000000000000600052601160045260246000fd5b7f4e487b7100000000000000000000000000000000000000000000000000000000600052601260045260246000fd5b7f4e487b7100000000000000000000000000000000000000000000000000000000600052602260045260246000fd5b7f4e487b7100000000000000000000000000000000000000000000000000000000600052604160045260246000fd5b6000601f19601f8301169050919050565b7f54686520626f6f6b20697320696e76616c696400000000000000000000000000600082015250565b7f4552433732313a207472616e7366657220746f206e6f6e20455243373231526560008201527f63656976657220696d706c656d656e7465720000000000000000000000000000602082015250565b7f4f776e61626c653a206e6577206f776e657220697320746865207a65726f206160008201527f6464726573730000000000000000000000000000000000000000000000000000602082015250565b7f4552433732313a207472616e736665722066726f6d20696e636f72726563742060008201527f6f776e6572000000000000000000000000000000000000000000000000000000602082015250565b7f4552433732313a20746f6b656e20616c7265616479206d696e74656400000000600082015250565b7f4552433732313a207472616e7366657220746f20746865207a65726f2061646460008201527f7265737300000000000000000000000000000000000000000000000000000000602082015250565b7f4552433732313a20617070726f766520746f2063616c6c657200000000000000600082015250565b7f4552433732313a206f70657261746f7220717565727920666f72206e6f6e657860008201527f697374656e7420746f6b656e0000000000000000000000000000000000000000602082015250565b7f4552433732313a20617070726f76652063616c6c6572206973206e6f74206f7760008201527f6e6572206e6f7220617070726f76656420666f7220616c6c0000000000000000602082015250565b7f4552433732313a2062616c616e636520717565727920666f7220746865207a6560008201527f726f206164647265737300000000000000000000000000000000000000000000602082015250565b7f4552433732313a206f776e657220717565727920666f72206e6f6e657869737460008201527f656e7420746f6b656e0000000000000000000000000000000000000000000000602082015250565b7f45524337323155524953746f726167653a2055524920736574206f66206e6f6e60008201527f6578697374656e7420746f6b656e000000000000000000000000000000000000602082015250565b7f4552433732313a206d696e7420746f20746865207a65726f2061646472657373600082015250565b7f45524337323155524953746f726167653a2055524920717565727920666f722060008201527f6e6f6e6578697374656e7420746f6b656e000000000000000000000000000000602082015250565b7f4552433732313a20617070726f76656420717565727920666f72206e6f6e657860008201527f697374656e7420746f6b656e0000000000000000000000000000000000000000602082015250565b7f4f776e61626c653a2063616c6c6572206973206e6f7420746865206f776e6572600082015250565b7f4552433732314d657461646174613a2055524920717565727920666f72206e6f60008201527f6e6578697374656e7420746f6b656e0000000000000000000000000000000000602082015250565b7f596f7520617265206e6f7420617574686f726973656420746f2064656c65746560008201527f207468697320626f6f6b2e000000000000000000000000000000000000000000602082015250565b7f4552433732313a20617070726f76616c20746f2063757272656e74206f776e6560008201527f7200000000000000000000000000000000000000000000000000000000000000602082015250565b7f4552433732313a207472616e736665722063616c6c6572206973206e6f74206f60008201527f776e6572206e6f7220617070726f766564000000000000000000000000000000602082015250565b61426b81613a94565b811461427657600080fd5b50565b61428281613aa6565b811461428d57600080fd5b50565b61429981613ab2565b81146142a457600080fd5b50565b6142b081613afe565b81146142bb57600080fd5b5056fea264697066735822122027c9cb7ae0c23687dd8cea9297321a9c828dd14f5a7b041c71b2881c0030b80b64736f6c63430008010033",
  "immutableReferences": {},
  "source": "//SPDX-License-Identifier: GPL-3.0\npragma solidity ^0.8.1;\n\nimport '@openzeppelin/contracts/token/ERC721/ERC721.sol';\nimport '@openzeppelin/contracts/utils/Counters.sol';\nimport '@openzeppelin/contracts/access/Ownable.sol';\nimport '@openzeppelin/contracts/token/ERC721/extensions/ERC721URIStorage.sol';\n\nabstract contract BSContext is ERC721URIStorage, Ownable {\n    address public contractOwner;\n\n    constructor() {\n        contractOwner = _msgSender();\n    }\n\n    function _msgValue() internal view virtual returns (uint256 value) {\n        return msg.value;\n    }\n\n    /**\n     * @dev Check if the current caller is the contract owner.\n     */\n    function isOwner() internal view returns (bool) {\n        return contractOwner == _msgSender();\n    }\n}\n\ncontract Bookstore is BSContext {\n    struct Book {\n        uint256 id;\n        string name;\n        string description;\n        bool valid; // false if been borrowed\n        uint256 price; // TRX per day\n        address owner; // owner of the book\n    }\n\n    uint256 public bookId;\n\n    mapping(uint256 => Book) public books;\n\n    struct Transaction {\n        uint256 bookId;\n        uint256 timestamp;\n        address buyer; // buyer's address\n        uint256 tokenId;\n    }\n\n    uint256 public transactionId;\n\n    mapping(uint256 => Transaction) public transactions;\n\n    using Counters for Counters.Counter;\n    Counters.Counter private _tokenIds;\n\n    constructor() ERC721('My Books', 'BOOK_NFT') {}\n\n    function totalBooks(bool validOnly) public view returns (Book[] memory) {\n        uint256 count = 0;\n        for (uint256 i = 0; i < bookId; i++) {\n            Book memory book = books[i];\n            if (!validOnly || book.valid) {\n                count++;\n            }\n        }\n\n        Book[] memory result = new Book[](count);\n        count = 0;\n        for (uint256 i = 0; i < bookId; i++) {\n            Book memory book = books[i];\n            if (!validOnly || book.valid) {\n                result[count++] = book;\n            }\n        }\n        return result;\n    }\n\n    /**\n     * @dev Add a Book with predefined `name`, `description` and `price`\n     * to the bookstore.\n     *\n     * Returns a boolean value indicating whether the operation succeeded.\n     *\n     * Emits a {NewBook} event.\n     */\n    function sellBook(\n        string memory name,\n        string memory description,\n        uint256 price\n    ) public returns (bool success) {\n        Book memory book = Book(\n            bookId,\n            name,\n            description,\n            true,\n            price,\n            _msgSender()\n        );\n\n        books[bookId] = book;\n\n        emit NewBook(bookId++);\n\n        return true;\n    }\n\n    function _mintNFT(address recipient, string memory tokenURI)\n        internal\n        returns (uint256)\n    {\n        _tokenIds.increment();\n\n        uint256 newItemId = _tokenIds.current();\n        _mint(recipient, newItemId);\n        _setTokenURI(newItemId, tokenURI);\n\n        return newItemId;\n    }\n\n    /**\n     * @dev Borrow a book has `_bookId`. The rental period starts from\n     * `startTime` ends with `endTime`.\n     *\n     * Returns a boolean value indicating whether the operation succeeded.\n     *\n     * Emits a `NewPurchase` event.\n     */\n    function buyBook(\n        uint256 _bookId,\n        uint256 timestamp,\n        string memory tokenURI\n    ) public payable returns (bool) {\n        Book storage book = books[_bookId];\n\n        require(book.valid == true, 'The book is invalid');\n\n        _sendPurchaseFee(book.owner, _msgValue());\n\n        uint256 tokenId = _mintNFT(_msgSender(), tokenURI);\n\n        transactions[transactionId] = Transaction(\n            _bookId,\n            timestamp,\n            _msgSender(),\n            tokenId\n        );\n\n        emit NewPurchase(_bookId, transactionId++, tokenId);\n\n        return true;\n    }\n\n    /**\n     * @dev Delete a book from the bookstore. Only the book's owner or the\n     * bookstore's owner is authorised for this operation.\n     *\n     * Returns a boolean value indicating whether the operation succeeded.\n     *\n     * Emits a `DeleteBook` event.\n     */\n    function deleteBook(uint256 _bookId) public returns (bool success) {\n        require(\n            _msgSender() == books[_bookId].owner || isOwner(),\n            'You are not authorised to delete this book.'\n        );\n\n        Book storage book = books[_bookId];\n        book.valid = false;\n\n        emit DeleteBook(_bookId);\n\n        return true;\n    }\n\n    /**\n     * @dev Calculate the number of days a book is rented out.\n     */\n    function _days(uint256 startTime, uint256 endTime)\n        internal\n        pure\n        returns (uint256)\n    {\n        if ((endTime - startTime) % uint256(86400) == 0) {\n            return (endTime - startTime) / uint256(86400);\n        } else {\n            return (endTime - startTime) / uint256(86400) + uint256(1);\n        }\n    }\n\n    /**\n     * @dev Send TRX to the book's owner.\n     */\n    function _sendPurchaseFee(address receiver, uint256 value) internal {\n        payable(address(uint160(receiver))).transfer(value);\n    }\n\n    /**\n     * @dev Emitted when a new book is added to the bookstore.\n     * Note `bookId` starts from 0.\n     */\n    event NewBook(uint256 indexed bookId);\n\n    /**\n     * @dev Emitted when a new book rental is made.\n     * Note `transactionId` and `bookId` start from 0.\n     */\n    event NewPurchase(\n        uint256 indexed bookId,\n        uint256 indexed transactionId,\n        uint256 indexed tokenId\n    );\n\n    /**\n     * @dev Emitted when a book is deleted from the bookstore.\n     */\n    event DeleteBook(uint256 indexed bookId);\n}\n",
  "sourcePath": "/Users/donghao/Documents/code/inflaton/decentralized-bookstore/smart-contracts/contracts/Bookstore.sol",
  "compiler": {
    "name": "solc",
    "version": "0.8.1+commit.df193b15.Emscripten.clang"
  },
  "schemaVersion": "3.4.7",
  "updatedAt": "2022-05-22T02:08:25.317Z",
  "networkType": "ethereum",
  "devdoc": {
    "events": {
      "DeleteBook(uint256)": {
        "details": "Emitted when a book is deleted from the bookstore."
      },
      "NewBook(uint256)": {
        "details": "Emitted when a new book is added to the bookstore. Note `bookId` starts from 0."
      },
      "NewPurchase(uint256,uint256,uint256)": {
        "details": "Emitted when a new book rental is made. Note `transactionId` and `bookId` start from 0."
      }
    },
    "kind": "dev",
    "methods": {
      "approve(address,uint256)": {
        "details": "See {IERC721-approve}."
      },
      "balanceOf(address)": {
        "details": "See {IERC721-balanceOf}."
      },
      "buyBook(uint256,uint256,string)": {
        "details": "Borrow a book has `_bookId`. The rental period starts from `startTime` ends with `endTime`. Returns a boolean value indicating whether the operation succeeded. Emits a `NewPurchase` event."
      },
      "deleteBook(uint256)": {
        "details": "Delete a book from the bookstore. Only the book's owner or the bookstore's owner is authorised for this operation. Returns a boolean value indicating whether the operation succeeded. Emits a `DeleteBook` event."
      },
      "getApproved(uint256)": {
        "details": "See {IERC721-getApproved}."
      },
      "isApprovedForAll(address,address)": {
        "details": "See {IERC721-isApprovedForAll}."
      },
      "name()": {
        "details": "See {IERC721Metadata-name}."
      },
      "owner()": {
        "details": "Returns the address of the current owner."
      },
      "ownerOf(uint256)": {
        "details": "See {IERC721-ownerOf}."
      },
      "renounceOwnership()": {
        "details": "Leaves the contract without owner. It will not be possible to call `onlyOwner` functions anymore. Can only be called by the current owner. NOTE: Renouncing ownership will leave the contract without an owner, thereby removing any functionality that is only available to the owner."
      },
      "safeTransferFrom(address,address,uint256)": {
        "details": "See {IERC721-safeTransferFrom}."
      },
      "safeTransferFrom(address,address,uint256,bytes)": {
        "details": "See {IERC721-safeTransferFrom}."
      },
      "sellBook(string,string,uint256)": {
        "details": "Add a Book with predefined `name`, `description` and `price` to the bookstore. Returns a boolean value indicating whether the operation succeeded. Emits a {NewBook} event."
      },
      "setApprovalForAll(address,bool)": {
        "details": "See {IERC721-setApprovalForAll}."
      },
      "supportsInterface(bytes4)": {
        "details": "See {IERC165-supportsInterface}."
      },
      "symbol()": {
        "details": "See {IERC721Metadata-symbol}."
      },
      "tokenURI(uint256)": {
        "details": "See {IERC721Metadata-tokenURI}."
      },
      "transferFrom(address,address,uint256)": {
        "details": "See {IERC721-transferFrom}."
      },
      "transferOwnership(address)": {
        "details": "Transfers ownership of the contract to a new account (`newOwner`). Can only be called by the current owner."
      }
    },
    "version": 1
  },
  "userdoc": {
    "kind": "user",
    "methods": {},
    "version": 1
  }
}